:100000000C9434000C943E000C943E000C943E0082
:100010000C943E000C943E000C943E000C943E0068
:100020000C943E000C943E000C943E000C943E0058
:100030000C943E000C943E000C943E000C943E0048
:100040000C943E000C943E000C943E000C943E0038
:100050000C943E000C943E000C943E000C943E0028
:100060000C943E000C943E0011241FBECFEFD8E04C
:10007000DEBFCDBF0E9440000C940B010C94000029
:1000800055D0A0EA97D09927DD27EE2790E0D0E061
:10009000E6E0219A299884D0299A21981999FECFCF
:1000A000199BFECF1999FECF6BD0322F69D068D043
:1000B00047D0B0E94DD0A22F55D05ED029D0E9CF9E
:1000C000442746BD44E647BD4AE045BD45B341FF30
:1000D000FDCF442745BD42E045BB089593959C3331
:1000E00011F490E0D395DC3311F4D0E0E395E831DE
:1000F000A9F7E0E0E23124F4E63010F0CACF089529
:100100001FD0B0E925D0AF3021F6AFEF2BD0089546
:10011000442746BD44E647BD4AE045BD45B341FFDF
:10012000FDCF442745BD42E045BB089550E05093C4
:10013000B90053E25093B80054E05093BC000895C6
:1001400054EA5093BC005091BC0057FFFCCF089577
:10015000B093BB0054E85093BC005091BC0057FFD3
:10016000FCCF0895A093BB0044E84093BC004091AD
:10017000BC0047FFFCCF089554E95093BC0008959C
:1001800018E02227199BFECF9BDF199B03C0089420
:10019000221F01C0220F1999FECF1A9599F70895D1
:1001A0005FEF62ED72E07A95F1F76A95D9F75A95AB
:1001B000C1F7089588278093C0008093C50087E623
:1001C0008093C40088E18093C10086E08093C200E0
:1001D0000895C091C000C5FFFCCF0895702F007F27
:1001E0000295005DC02FCA5342F40895072F0F7087
:1001F000005DC02FCA531AF40895095FF6CF095F56
:10020000FBCF4FEF5FEF62E56A95F1F75A95D9F7AB
:0A0210004A95C1F70895F894FFCF56
:00000001FF
