:100000000C9434000C943E000C943E000C943E0082
:100010000C943E000C943E000C943E000C943E0068
:100020000C943E000C943E000C943E000C943E0058
:100030000C943E000C943E000C943E000C943E0048
:100040000C943E000C943E000C943E000C943E0038
:100050000C943E000C943E000C943E000C943E0028
:100060000C943E000C943E0011241FBECFEFD8E04C
:10007000DEBFCDBF0E9440000C94DD000C94000058
:1000800052D050EF5AB911272227332710E020E031
:1000900036E0209828982198299876D07FD083D070
:1000A0000ED027D054D04ED00093C60058D04AD09E
:1000B0000093C6000CE746D00093C600EECF189917
:1000C00001C001C091E013951C3311F410E0239599
:1000D0002C3311F420E03395383109F430E09130BD
:1000E00031F0323124F4363010F0D7CF08950B2F91
:1000F0000895B83210F494F008955E9A05D05D9892
:1001000003D05D9A5F9A08954FEF5FEF64E16A95BF
:10011000F1F75A95D9F74A95C1F708955E985D9819
:100120005F9828D0089588278093C0008093C500E9
:1001300087E68093C40088E18093C10086E08093C5
:10014000C2000895C091C000C5FFFCCF0895702F74
:10015000007F0295005DC02FCA5342F40895072F17
:100160000F70005DC02FCA531AF40895095FF6CFCF
:10017000095FFBCF4FEF5FEF62E56A95F1F75A95A4
:10018000D9F74A95C1F7089550E95093BA0054E061
:100190005093BC0054EC5093BC0008955091BC00A7
:1001A00057FFFCCF089554EC5093BC005091BC0015
:0E01B00057FFFCCFB091BB000895F894FFCF2D
:00000001FF
