:020000040000FA
:100000000C9434000C943E000C943E000C943E0082
:100010000C943E000C943E000C943E000C943E0068
:100020000C943E000C943E000C943E000C943E0058
:100030000C943E000C943E000C943E000C943E0048
:100040000C943E000C943E000C943E000C943E0038
:100050000C943E000C943E000C943E000C943E0028
:100060000C943E000C943E0011241FBECFEFD8E04C
:10007000DEBFCDBF0E9440000C94DD000C94000058
:1000800052D050EF5AB911272227332710E020E031
:1000900036E0209828982198299876D07FD083D070
:1000A0000ED027D054D04ED00093C60058D04AD09E
:1000B0000093C6000CE746D00093C600EECF189917
:1000C00001C001C091E013951C3311F410E0239599
:1000D0002C3311F420E03395383109F430E09130BD
:1000E00031F0323124F4363010F0D7CF08950B2F91
:1000F0000895B83210F494F008955E9A05D05D9892
:1001000003D05D9A5F9A08954FEF5FEF64E16A95BF
:10011000F1F75A95D9F74A95C1F708955E985D9819
:100120005F9828D0089588278093C0008093C500E9
:1001300087E68093C40088E18093C10086E08093C5
:10014000C2000895C091C000C5FFFCCF0895702F74
:10015000007F0295005DC02FCA5342F40895072F17
:100160000F70005DC02FCA531AF40895095FF6CFCF
:10017000095FFBCF4FEF5FEF62E56A95F1F75A95A4
:10018000D9F74A95C1F7089550E95093BA0054E061
:100190005093BC0054EC5093BC0008955091BC00A7
:1001A00057FFFCCF089554EC5093BC005091BC0015
:0E01B00057FFFCCFB091BB000895F894FFCF2D
:107E0000112484B714BE81FFF0D085E080938100F7
:107E100082E08093C00088E18093C10086E0809377
:107E2000C20080E18093C4008EE0C9D0259A86E02C
:107E300020E33CEF91E0309385002093840096BBD3
:107E4000B09BFECF1D9AA8958150A9F7CC24DD24C4
:107E500088248394B5E0AB2EA1E19A2EF3E0BF2EE7
:107E6000A2D0813461F49FD0082FAFD0023811F036
:107E7000013811F484E001C083E08DD089C08234E0
:107E800011F484E103C0853419F485E0A6D080C0E4
:107E9000853579F488D0E82EFF2485D0082F10E0AE
:107EA000102F00270E291F29000F111F8ED06801E7
:107EB0006FC0863521F484E090D080E0DECF843638
:107EC00009F040C070D06FD0082F6DD080E0C81688
:107ED00080E7D80618F4F601B7BEE895C0E0D1E017
:107EE00062D089930C17E1F7F0E0CF16F0E7DF06D8
:107EF00018F0F601B7BEE89568D007B600FCFDCFD4
:107F0000A601A0E0B1E02C9130E011968C91119780
:107F100090E0982F8827822B932B1296FA010C0160
:107F200087BEE89511244E5F5F4FF1E0A038BF0790
:107F300051F7F601A7BEE89507B600FCFDCF97BE46
:107F4000E89526C08437B1F42ED02DD0F82E2BD052
:107F50003CD0F601EF2C8F010F5F1F4F84911BD097
:107F6000EA94F801C1F70894C11CD11CFA94CF0C13
:107F7000D11C0EC0853739F428D08EE10CD085E9AC
:107F80000AD08FE07ACF813511F488E018D01DD067
:107F900080E101D065CF982F8091C00085FFFCCF94
:107FA0009093C60008958091C00087FFFCCF809118
:107FB000C00084FD01C0A8958091C6000895E0E648
:107FC000F0E098E1908380830895EDDF803219F02E
:107FD00088E0F5DFFFCF84E1DECF1F93182FE3DFCA
:107FE0001150E9F7F2DF1F91089580E0E8DFEE27F6
:047FF000FF270994CA
:027FFE00040479
:00000001FF
